{
  "address": "0xc4eCD451590E85CF732b9775BbE8a9254Ea10Fe2",
  "abi": [
    {
      "inputs": [
        {
          "internalType": "string",
          "name": "name",
          "type": "string"
        },
        {
          "internalType": "string",
          "name": "sym",
          "type": "string"
        }
      ],
      "stateMutability": "nonpayable",
      "type": "constructor"
    },
    {
      "anonymous": false,
      "inputs": [
        {
          "indexed": true,
          "internalType": "address",
          "name": "owner",
          "type": "address"
        },
        {
          "indexed": true,
          "internalType": "address",
          "name": "approved",
          "type": "address"
        },
        {
          "indexed": true,
          "internalType": "uint256",
          "name": "tokenId",
          "type": "uint256"
        }
      ],
      "name": "Approval",
      "type": "event"
    },
    {
      "anonymous": false,
      "inputs": [
        {
          "indexed": true,
          "internalType": "address",
          "name": "owner",
          "type": "address"
        },
        {
          "indexed": true,
          "internalType": "address",
          "name": "operator",
          "type": "address"
        },
        {
          "indexed": false,
          "internalType": "bool",
          "name": "approved",
          "type": "bool"
        }
      ],
      "name": "ApprovalForAll",
      "type": "event"
    },
    {
      "anonymous": false,
      "inputs": [
        {
          "indexed": true,
          "internalType": "address",
          "name": "previousOwner",
          "type": "address"
        },
        {
          "indexed": true,
          "internalType": "address",
          "name": "newOwner",
          "type": "address"
        }
      ],
      "name": "OwnershipTransferred",
      "type": "event"
    },
    {
      "anonymous": false,
      "inputs": [
        {
          "indexed": true,
          "internalType": "address",
          "name": "from",
          "type": "address"
        },
        {
          "indexed": true,
          "internalType": "address",
          "name": "to",
          "type": "address"
        },
        {
          "indexed": true,
          "internalType": "uint256",
          "name": "tokenId",
          "type": "uint256"
        }
      ],
      "name": "Transfer",
      "type": "event"
    },
    {
      "inputs": [
        {
          "internalType": "address",
          "name": "to",
          "type": "address"
        },
        {
          "internalType": "uint256",
          "name": "tokenId",
          "type": "uint256"
        }
      ],
      "name": "approve",
      "outputs": [],
      "stateMutability": "nonpayable",
      "type": "function"
    },
    {
      "inputs": [
        {
          "internalType": "address",
          "name": "owner",
          "type": "address"
        }
      ],
      "name": "balanceOf",
      "outputs": [
        {
          "internalType": "uint256",
          "name": "",
          "type": "uint256"
        }
      ],
      "stateMutability": "view",
      "type": "function"
    },
    {
      "inputs": [],
      "name": "baseExtension",
      "outputs": [
        {
          "internalType": "string",
          "name": "",
          "type": "string"
        }
      ],
      "stateMutability": "view",
      "type": "function"
    },
    {
      "inputs": [],
      "name": "baseURI",
      "outputs": [
        {
          "internalType": "string",
          "name": "",
          "type": "string"
        }
      ],
      "stateMutability": "view",
      "type": "function"
    },
    {
      "inputs": [],
      "name": "cost",
      "outputs": [
        {
          "internalType": "uint256",
          "name": "",
          "type": "uint256"
        }
      ],
      "stateMutability": "view",
      "type": "function"
    },
    {
      "inputs": [
        {
          "internalType": "uint256",
          "name": "tokenId",
          "type": "uint256"
        }
      ],
      "name": "getApproved",
      "outputs": [
        {
          "internalType": "address",
          "name": "",
          "type": "address"
        }
      ],
      "stateMutability": "view",
      "type": "function"
    },
    {
      "inputs": [
        {
          "internalType": "address",
          "name": "owner",
          "type": "address"
        },
        {
          "internalType": "address",
          "name": "operator",
          "type": "address"
        }
      ],
      "name": "isApprovedForAll",
      "outputs": [
        {
          "internalType": "bool",
          "name": "",
          "type": "bool"
        }
      ],
      "stateMutability": "view",
      "type": "function"
    },
    {
      "inputs": [],
      "name": "maxMintAmount",
      "outputs": [
        {
          "internalType": "uint256",
          "name": "",
          "type": "uint256"
        }
      ],
      "stateMutability": "view",
      "type": "function"
    },
    {
      "inputs": [],
      "name": "maxSupply",
      "outputs": [
        {
          "internalType": "uint256",
          "name": "",
          "type": "uint256"
        }
      ],
      "stateMutability": "view",
      "type": "function"
    },
    {
      "inputs": [
        {
          "internalType": "address",
          "name": "_to",
          "type": "address"
        },
        {
          "internalType": "uint256",
          "name": "_mintAmount",
          "type": "uint256"
        }
      ],
      "name": "mint",
      "outputs": [],
      "stateMutability": "payable",
      "type": "function"
    },
    {
      "inputs": [],
      "name": "name",
      "outputs": [
        {
          "internalType": "string",
          "name": "",
          "type": "string"
        }
      ],
      "stateMutability": "view",
      "type": "function"
    },
    {
      "inputs": [],
      "name": "owner",
      "outputs": [
        {
          "internalType": "address",
          "name": "",
          "type": "address"
        }
      ],
      "stateMutability": "view",
      "type": "function"
    },
    {
      "inputs": [
        {
          "internalType": "uint256",
          "name": "tokenId",
          "type": "uint256"
        }
      ],
      "name": "ownerOf",
      "outputs": [
        {
          "internalType": "address",
          "name": "",
          "type": "address"
        }
      ],
      "stateMutability": "view",
      "type": "function"
    },
    {
      "inputs": [
        {
          "internalType": "bool",
          "name": "_state",
          "type": "bool"
        }
      ],
      "name": "pause",
      "outputs": [],
      "stateMutability": "nonpayable",
      "type": "function"
    },
    {
      "inputs": [],
      "name": "paused",
      "outputs": [
        {
          "internalType": "bool",
          "name": "",
          "type": "bool"
        }
      ],
      "stateMutability": "view",
      "type": "function"
    },
    {
      "inputs": [
        {
          "internalType": "address",
          "name": "_user",
          "type": "address"
        }
      ],
      "name": "removeWhitelistUser",
      "outputs": [],
      "stateMutability": "nonpayable",
      "type": "function"
    },
    {
      "inputs": [],
      "name": "renounceOwnership",
      "outputs": [],
      "stateMutability": "nonpayable",
      "type": "function"
    },
    {
      "inputs": [
        {
          "internalType": "address",
          "name": "from",
          "type": "address"
        },
        {
          "internalType": "address",
          "name": "to",
          "type": "address"
        },
        {
          "internalType": "uint256",
          "name": "tokenId",
          "type": "uint256"
        }
      ],
      "name": "safeTransferFrom",
      "outputs": [],
      "stateMutability": "nonpayable",
      "type": "function"
    },
    {
      "inputs": [
        {
          "internalType": "address",
          "name": "from",
          "type": "address"
        },
        {
          "internalType": "address",
          "name": "to",
          "type": "address"
        },
        {
          "internalType": "uint256",
          "name": "tokenId",
          "type": "uint256"
        },
        {
          "internalType": "bytes",
          "name": "data",
          "type": "bytes"
        }
      ],
      "name": "safeTransferFrom",
      "outputs": [],
      "stateMutability": "nonpayable",
      "type": "function"
    },
    {
      "inputs": [
        {
          "internalType": "address",
          "name": "operator",
          "type": "address"
        },
        {
          "internalType": "bool",
          "name": "approved",
          "type": "bool"
        }
      ],
      "name": "setApprovalForAll",
      "outputs": [],
      "stateMutability": "nonpayable",
      "type": "function"
    },
    {
      "inputs": [
        {
          "internalType": "string",
          "name": "_newBaseExtension",
          "type": "string"
        }
      ],
      "name": "setBaseExtension",
      "outputs": [],
      "stateMutability": "nonpayable",
      "type": "function"
    },
    {
      "inputs": [
        {
          "internalType": "string",
          "name": "_newBaseURI",
          "type": "string"
        }
      ],
      "name": "setBaseURI",
      "outputs": [],
      "stateMutability": "nonpayable",
      "type": "function"
    },
    {
      "inputs": [
        {
          "internalType": "uint256",
          "name": "_newCost",
          "type": "uint256"
        }
      ],
      "name": "setCost",
      "outputs": [],
      "stateMutability": "nonpayable",
      "type": "function"
    },
    {
      "inputs": [
        {
          "internalType": "uint256",
          "name": "_newmaxMintAmount",
          "type": "uint256"
        }
      ],
      "name": "setmaxMintAmount",
      "outputs": [],
      "stateMutability": "nonpayable",
      "type": "function"
    },
    {
      "inputs": [
        {
          "internalType": "bytes4",
          "name": "interfaceId",
          "type": "bytes4"
        }
      ],
      "name": "supportsInterface",
      "outputs": [
        {
          "internalType": "bool",
          "name": "",
          "type": "bool"
        }
      ],
      "stateMutability": "view",
      "type": "function"
    },
    {
      "inputs": [],
      "name": "symbol",
      "outputs": [
        {
          "internalType": "string",
          "name": "",
          "type": "string"
        }
      ],
      "stateMutability": "view",
      "type": "function"
    },
    {
      "inputs": [
        {
          "internalType": "uint256",
          "name": "index",
          "type": "uint256"
        }
      ],
      "name": "tokenByIndex",
      "outputs": [
        {
          "internalType": "uint256",
          "name": "",
          "type": "uint256"
        }
      ],
      "stateMutability": "view",
      "type": "function"
    },
    {
      "inputs": [
        {
          "internalType": "address",
          "name": "owner",
          "type": "address"
        },
        {
          "internalType": "uint256",
          "name": "index",
          "type": "uint256"
        }
      ],
      "name": "tokenOfOwnerByIndex",
      "outputs": [
        {
          "internalType": "uint256",
          "name": "",
          "type": "uint256"
        }
      ],
      "stateMutability": "view",
      "type": "function"
    },
    {
      "inputs": [
        {
          "internalType": "uint256",
          "name": "tokenId",
          "type": "uint256"
        }
      ],
      "name": "tokenURI",
      "outputs": [
        {
          "internalType": "string",
          "name": "",
          "type": "string"
        }
      ],
      "stateMutability": "view",
      "type": "function"
    },
    {
      "inputs": [],
      "name": "totalSupply",
      "outputs": [
        {
          "internalType": "uint256",
          "name": "",
          "type": "uint256"
        }
      ],
      "stateMutability": "view",
      "type": "function"
    },
    {
      "inputs": [
        {
          "internalType": "address",
          "name": "from",
          "type": "address"
        },
        {
          "internalType": "address",
          "name": "to",
          "type": "address"
        },
        {
          "internalType": "uint256",
          "name": "tokenId",
          "type": "uint256"
        }
      ],
      "name": "transferFrom",
      "outputs": [],
      "stateMutability": "nonpayable",
      "type": "function"
    },
    {
      "inputs": [
        {
          "internalType": "address",
          "name": "newOwner",
          "type": "address"
        }
      ],
      "name": "transferOwnership",
      "outputs": [],
      "stateMutability": "nonpayable",
      "type": "function"
    },
    {
      "inputs": [
        {
          "internalType": "address",
          "name": "_owner",
          "type": "address"
        }
      ],
      "name": "walletOfOwner",
      "outputs": [
        {
          "internalType": "uint256[]",
          "name": "",
          "type": "uint256[]"
        }
      ],
      "stateMutability": "view",
      "type": "function"
    },
    {
      "inputs": [
        {
          "internalType": "address",
          "name": "_user",
          "type": "address"
        }
      ],
      "name": "whitelistUser",
      "outputs": [],
      "stateMutability": "nonpayable",
      "type": "function"
    },
    {
      "inputs": [
        {
          "internalType": "address",
          "name": "",
          "type": "address"
        }
      ],
      "name": "whitelisted",
      "outputs": [
        {
          "internalType": "bool",
          "name": "",
          "type": "bool"
        }
      ],
      "stateMutability": "view",
      "type": "function"
    },
    {
      "inputs": [],
      "name": "withdraw",
      "outputs": [],
      "stateMutability": "payable",
      "type": "function"
    }
  ],
  "transactionHash": "0x27fed9a08f1dc86f4d6edb53e5aa507cf30a1722f61e52da058d28994343fce9",
  "args": [
    "test final",
    "tfffff"
  ],
  "numDeployments": 1,
  "solcInputHash": "c924c1f37d001fe5411bac5fb39cb48b",
  "bytecode": "0x60806040526040518060400160405280600581526020017f2e6a736f6e000000000000000000000000000000000000000000000000000000815250600c90805190602001906200005192919062000e8e565b506000600d55612710600e55612710600f556000601060006101000a81548160ff0219169083151502179055503480156200008b57600080fd5b506040516200571c3803806200571c8339818101604052810190620000b19190620010db565b81818160009080519060200190620000cb92919062000e8e565b508060019080519060200190620000e492919062000e8e565b50505062000107620000fb6200014c60201b60201c565b6200015460201b60201c565b62000131604051806080016040528060598152602001620056c3605991396200021a60201b60201c565b620001443360646200024660201b60201c565b5050620017d0565b600033905090565b6000600a60009054906101000a900473ffffffffffffffffffffffffffffffffffffffff16905081600a60006101000a81548173ffffffffffffffffffffffffffffffffffffffff021916908373ffffffffffffffffffffffffffffffffffffffff1602179055508173ffffffffffffffffffffffffffffffffffffffff168173ffffffffffffffffffffffffffffffffffffffff167f8be0079c531659141344cd1fd0a4f28419497f9722a3daafe3b4186f6b6457e060405160405180910390a35050565b6200022a620003b560201b60201c565b80600b90805190602001906200024292919062000e8e565b5050565b6000620002586200044660201b60201c565b9050601060009054906101000a900460ff16156200027557600080fd5b600082116200028357600080fd5b600f548211156200029357600080fd5b600e548282620002a4919062001199565b1115620002b057600080fd5b620002c06200045360201b60201c565b73ffffffffffffffffffffffffffffffffffffffff163373ffffffffffffffffffffffffffffffffffffffff16146200036b5760011515601160003373ffffffffffffffffffffffffffffffffffffffff1673ffffffffffffffffffffffffffffffffffffffff16815260200190815260200160002060009054906101000a900460ff161515146200036a5781600d546200035c9190620011f6565b3410156200036957600080fd5b5b5b6000600190505b828111620003af57620003998482846200038d919062001199565b6200047d60201b60201c565b8080620003a69062001257565b91505062000372565b50505050565b620003c56200014c60201b60201c565b73ffffffffffffffffffffffffffffffffffffffff16620003eb6200045360201b60201c565b73ffffffffffffffffffffffffffffffffffffffff161462000444576040517f08c379a00000000000000000000000000000000000000000000000000000000081526004016200043b9062001306565b60405180910390fd5b565b6000600880549050905090565b6000600a60009054906101000a900473ffffffffffffffffffffffffffffffffffffffff16905090565b6200049f828260405180602001604052806000815250620004a360201b60201c565b5050565b620004b583836200051160201b60201c565b620004ca60008484846200070b60201b60201c565b6200050c576040517f08c379a000000000000000000000000000000000000000000000000000000000815260040162000503906200139e565b60405180910390fd5b505050565b600073ffffffffffffffffffffffffffffffffffffffff168273ffffffffffffffffffffffffffffffffffffffff16141562000584576040517f08c379a00000000000000000000000000000000000000000000000000000000081526004016200057b9062001410565b60405180910390fd5b6200059581620008c560201b60201c565b15620005d8576040517f08c379a0000000000000000000000000000000000000000000000000000000008152600401620005cf9062001482565b60405180910390fd5b620005ec600083836200093160201b60201c565b6001600360008473ffffffffffffffffffffffffffffffffffffffff1673ffffffffffffffffffffffffffffffffffffffff16815260200190815260200160002060008282546200063e919062001199565b92505081905550816002600083815260200190815260200160002060006101000a81548173ffffffffffffffffffffffffffffffffffffffff021916908373ffffffffffffffffffffffffffffffffffffffff160217905550808273ffffffffffffffffffffffffffffffffffffffff16600073ffffffffffffffffffffffffffffffffffffffff167fddf252ad1be2c89b69c2b068fc378daa952ba7f163c4a11628f55a4df523b3ef60405160405180910390a4620007076000838362000a7860201b60201c565b5050565b6000620007398473ffffffffffffffffffffffffffffffffffffffff1662000a7d60201b620016271760201c565b15620008b8578373ffffffffffffffffffffffffffffffffffffffff1663150b7a026200076b6200014c60201b60201c565b8786866040518563ffffffff1660e01b81526004016200078f949392919062001557565b602060405180830381600087803b158015620007aa57600080fd5b505af1925050508015620007de57506040513d601f19601f82011682018060405250810190620007db919062001608565b60015b62000867573d806000811462000811576040519150601f19603f3d011682016040523d82523d6000602084013e62000816565b606091505b506000815114156200085f576040517f08c379a000000000000000000000000000000000000000000000000000000000815260040162000856906200139e565b60405180910390fd5b805181602001fd5b63150b7a0260e01b7bffffffffffffffffffffffffffffffffffffffffffffffffffffffff1916817bffffffffffffffffffffffffffffffffffffffffffffffffffffffff191614915050620008bd565b600190505b949350505050565b60008073ffffffffffffffffffffffffffffffffffffffff166002600084815260200190815260200160002060009054906101000a900473ffffffffffffffffffffffffffffffffffffffff1673ffffffffffffffffffffffffffffffffffffffff1614159050919050565b6200094983838362000aa060201b6200164a1760201c565b600073ffffffffffffffffffffffffffffffffffffffff168373ffffffffffffffffffffffffffffffffffffffff1614156200099657620009908162000aa560201b60201c565b620009de565b8173ffffffffffffffffffffffffffffffffffffffff168373ffffffffffffffffffffffffffffffffffffffff1614620009dd57620009dc838262000aee60201b60201c565b5b5b600073ffffffffffffffffffffffffffffffffffffffff168273ffffffffffffffffffffffffffffffffffffffff16141562000a2b5762000a258162000c6b60201b60201c565b62000a73565b8273ffffffffffffffffffffffffffffffffffffffff168273ffffffffffffffffffffffffffffffffffffffff161462000a725762000a71828262000d4760201b60201c565b5b5b505050565b505050565b6000808273ffffffffffffffffffffffffffffffffffffffff163b119050919050565b505050565b6008805490506009600083815260200190815260200160002081905550600881908060018154018082558091505060019003906000526020600020016000909190919091505550565b6000600162000b088462000dd360201b6200117d1760201c565b62000b1491906200163a565b905060006007600084815260200190815260200160002054905081811462000bfa576000600660008673ffffffffffffffffffffffffffffffffffffffff1673ffffffffffffffffffffffffffffffffffffffff168152602001908152602001600020600084815260200190815260200160002054905080600660008773ffffffffffffffffffffffffffffffffffffffff1673ffffffffffffffffffffffffffffffffffffffff168152602001908152602001600020600084815260200190815260200160002081905550816007600083815260200190815260200160002081905550505b6007600084815260200190815260200160002060009055600660008573ffffffffffffffffffffffffffffffffffffffff1673ffffffffffffffffffffffffffffffffffffffff16815260200190815260200160002060008381526020019081526020016000206000905550505050565b6000600160088054905062000c8191906200163a565b905060006009600084815260200190815260200160002054905060006008838154811062000cb45762000cb362001675565b5b90600052602060002001549050806008838154811062000cd95762000cd862001675565b5b90600052602060002001819055508160096000838152602001908152602001600020819055506009600085815260200190815260200160002060009055600880548062000d2b5762000d2a620016a4565b5b6001900381819060005260206000200160009055905550505050565b600062000d5f8362000dd360201b6200117d1760201c565b905081600660008573ffffffffffffffffffffffffffffffffffffffff1673ffffffffffffffffffffffffffffffffffffffff168152602001908152602001600020600083815260200190815260200160002081905550806007600084815260200190815260200160002081905550505050565b60008073ffffffffffffffffffffffffffffffffffffffff168273ffffffffffffffffffffffffffffffffffffffff16141562000e47576040517f08c379a000000000000000000000000000000000000000000000000000000000815260040162000e3e9062001749565b60405180910390fd5b600360008373ffffffffffffffffffffffffffffffffffffffff1673ffffffffffffffffffffffffffffffffffffffff168152602001908152602001600020549050919050565b82805462000e9c906200179a565b90600052602060002090601f01602090048101928262000ec0576000855562000f0c565b82601f1062000edb57805160ff191683800117855562000f0c565b8280016001018555821562000f0c579182015b8281111562000f0b57825182559160200191906001019062000eee565b5b50905062000f1b919062000f1f565b5090565b5b8082111562000f3a57600081600090555060010162000f20565b5090565b6000604051905090565b600080fd5b600080fd5b600080fd5b600080fd5b6000601f19601f8301169050919050565b7f4e487b7100000000000000000000000000000000000000000000000000000000600052604160045260246000fd5b62000fa78262000f5c565b810181811067ffffffffffffffff8211171562000fc95762000fc862000f6d565b5b80604052505050565b600062000fde62000f3e565b905062000fec828262000f9c565b919050565b600067ffffffffffffffff8211156200100f576200100e62000f6d565b5b6200101a8262000f5c565b9050602081019050919050565b60005b83811015620010475780820151818401526020810190506200102a565b8381111562001057576000848401525b50505050565b6000620010746200106e8462000ff1565b62000fd2565b90508281526020810184848401111562001093576200109262000f57565b5b620010a084828562001027565b509392505050565b600082601f830112620010c057620010bf62000f52565b5b8151620010d28482602086016200105d565b91505092915050565b60008060408385031215620010f557620010f462000f48565b5b600083015167ffffffffffffffff81111562001116576200111562000f4d565b5b6200112485828601620010a8565b925050602083015167ffffffffffffffff81111562001148576200114762000f4d565b5b6200115685828601620010a8565b9150509250929050565b6000819050919050565b7f4e487b7100000000000000000000000000000000000000000000000000000000600052601160045260246000fd5b6000620011a68262001160565b9150620011b38362001160565b9250827fffffffffffffffffffffffffffffffffffffffffffffffffffffffffffffffff03821115620011eb57620011ea6200116a565b5b828201905092915050565b6000620012038262001160565b9150620012108362001160565b9250817fffffffffffffffffffffffffffffffffffffffffffffffffffffffffffffffff04831182151516156200124c576200124b6200116a565b5b828202905092915050565b6000620012648262001160565b91507fffffffffffffffffffffffffffffffffffffffffffffffffffffffffffffffff8214156200129a57620012996200116a565b5b600182019050919050565b600082825260208201905092915050565b7f4f776e61626c653a2063616c6c6572206973206e6f7420746865206f776e6572600082015250565b6000620012ee602083620012a5565b9150620012fb82620012b6565b602082019050919050565b600060208201905081810360008301526200132181620012df565b9050919050565b7f4552433732313a207472616e7366657220746f206e6f6e20455243373231526560008201527f63656976657220696d706c656d656e7465720000000000000000000000000000602082015250565b600062001386603283620012a5565b9150620013938262001328565b604082019050919050565b60006020820190508181036000830152620013b98162001377565b9050919050565b7f4552433732313a206d696e7420746f20746865207a65726f2061646472657373600082015250565b6000620013f8602083620012a5565b91506200140582620013c0565b602082019050919050565b600060208201905081810360008301526200142b81620013e9565b9050919050565b7f4552433732313a20746f6b656e20616c7265616479206d696e74656400000000600082015250565b60006200146a601c83620012a5565b9150620014778262001432565b602082019050919050565b600060208201905081810360008301526200149d816200145b565b9050919050565b600073ffffffffffffffffffffffffffffffffffffffff82169050919050565b6000620014d182620014a4565b9050919050565b620014e381620014c4565b82525050565b620014f48162001160565b82525050565b600081519050919050565b600082825260208201905092915050565b60006200152382620014fa565b6200152f818562001505565b93506200154181856020860162001027565b6200154c8162000f5c565b840191505092915050565b60006080820190506200156e6000830187620014d8565b6200157d6020830186620014d8565b6200158c6040830185620014e9565b8181036060830152620015a0818462001516565b905095945050505050565b60007fffffffff0000000000000000000000000000000000000000000000000000000082169050919050565b620015e281620015ab565b8114620015ee57600080fd5b50565b6000815190506200160281620015d7565b92915050565b60006020828403121562001621576200162062000f48565b5b60006200163184828501620015f1565b91505092915050565b6000620016478262001160565b9150620016548362001160565b9250828210156200166a57620016696200116a565b5b828203905092915050565b7f4e487b7100000000000000000000000000000000000000000000000000000000600052603260045260246000fd5b7f4e487b7100000000000000000000000000000000000000000000000000000000600052603160045260246000fd5b7f4552433732313a2061646472657373207a65726f206973206e6f74206120766160008201527f6c6964206f776e65720000000000000000000000000000000000000000000000602082015250565b600062001731602983620012a5565b91506200173e82620016d3565b604082019050919050565b60006020820190508181036000830152620017648162001722565b9050919050565b7f4e487b7100000000000000000000000000000000000000000000000000000000600052602260045260246000fd5b60006002820490506001821680620017b357607f821691505b60208210811415620017ca57620017c96200176b565b5b50919050565b613ee380620017e06000396000f3fe60806040526004361061020f5760003560e01c806355f804b311610118578063a22cb465116100a0578063d5abeb011161006f578063d5abeb011461077f578063d936547e146107aa578063da3ef23f146107e7578063e985e9c514610810578063f2fde38b1461084d5761020f565b8063a22cb465146106c5578063b88d4fde146106ee578063c668286214610717578063c87b56dd146107425761020f565b806370a08231116100e757806370a08231146105f2578063715018a61461062f5780637f00c7a6146106465780638da5cb5b1461066f57806395d89b411461069a5761020f565b806355f804b3146105365780635c975abb1461055f5780636352211e1461058a5780636c0360eb146105c75761020f565b80632f745c591161019b57806342842e0e1161016a57806342842e0e14610441578063438b63001461046a57806344a0d68a146104a75780634a4c560d146104d05780634f6ccce7146104f95761020f565b80632f745c59146103b557806330cc7ae0146103f25780633ccfd60b1461041b57806340c10f19146104255761020f565b8063095ea7b3116101e2578063095ea7b3146102e257806313faede61461030b57806318160ddd14610336578063239c70ae1461036157806323b872dd1461038c5761020f565b806301ffc9a71461021457806302329a291461025157806306fdde031461027a578063081812fc146102a5575b600080fd5b34801561022057600080fd5b5061023b60048036038101906102369190612a27565b610876565b6040516102489190612a6f565b60405180910390f35b34801561025d57600080fd5b5061027860048036038101906102739190612ab6565b6108f0565b005b34801561028657600080fd5b5061028f610915565b60405161029c9190612b7c565b60405180910390f35b3480156102b157600080fd5b506102cc60048036038101906102c79190612bd4565b6109a7565b6040516102d99190612c42565b60405180910390f35b3480156102ee57600080fd5b5061030960048036038101906103049190612c89565b6109ed565b005b34801561031757600080fd5b50610320610b05565b60405161032d9190612cd8565b60405180910390f35b34801561034257600080fd5b5061034b610b0b565b6040516103589190612cd8565b60405180910390f35b34801561036d57600080fd5b50610376610b18565b6040516103839190612cd8565b60405180910390f35b34801561039857600080fd5b506103b360048036038101906103ae9190612cf3565b610b1e565b005b3480156103c157600080fd5b506103dc60048036038101906103d79190612c89565b610b7e565b6040516103e99190612cd8565b60405180910390f35b3480156103fe57600080fd5b5061041960048036038101906104149190612d46565b610c23565b005b610423610c86565b005b61043f600480360381019061043a9190612c89565b610d0e565b005b34801561044d57600080fd5b5061046860048036038101906104639190612cf3565b610e54565b005b34801561047657600080fd5b50610491600480360381019061048c9190612d46565b610e74565b60405161049e9190612e31565b60405180910390f35b3480156104b357600080fd5b506104ce60048036038101906104c99190612bd4565b610f22565b005b3480156104dc57600080fd5b506104f760048036038101906104f29190612d46565b610f34565b005b34801561050557600080fd5b50610520600480360381019061051b9190612bd4565b610f97565b60405161052d9190612cd8565b60405180910390f35b34801561054257600080fd5b5061055d60048036038101906105589190612f88565b611008565b005b34801561056b57600080fd5b5061057461102a565b6040516105819190612a6f565b60405180910390f35b34801561059657600080fd5b506105b160048036038101906105ac9190612bd4565b61103d565b6040516105be9190612c42565b60405180910390f35b3480156105d357600080fd5b506105dc6110ef565b6040516105e99190612b7c565b60405180910390f35b3480156105fe57600080fd5b5061061960048036038101906106149190612d46565b61117d565b6040516106269190612cd8565b60405180910390f35b34801561063b57600080fd5b50610644611235565b005b34801561065257600080fd5b5061066d60048036038101906106689190612bd4565b611249565b005b34801561067b57600080fd5b5061068461125b565b6040516106919190612c42565b60405180910390f35b3480156106a657600080fd5b506106af611285565b6040516106bc9190612b7c565b60405180910390f35b3480156106d157600080fd5b506106ec60048036038101906106e79190612fd1565b611317565b005b3480156106fa57600080fd5b50610715600480360381019061071091906130b2565b61132d565b005b34801561072357600080fd5b5061072c61138f565b6040516107399190612b7c565b60405180910390f35b34801561074e57600080fd5b5061076960048036038101906107649190612bd4565b61141d565b6040516107769190612b7c565b60405180910390f35b34801561078b57600080fd5b506107946114c7565b6040516107a19190612cd8565b60405180910390f35b3480156107b657600080fd5b506107d160048036038101906107cc9190612d46565b6114cd565b6040516107de9190612a6f565b60405180910390f35b3480156107f357600080fd5b5061080e60048036038101906108099190612f88565b6114ed565b005b34801561081c57600080fd5b5061083760048036038101906108329190613135565b61150f565b6040516108449190612a6f565b60405180910390f35b34801561085957600080fd5b50610874600480360381019061086f9190612d46565b6115a3565b005b60007f780e9d63000000000000000000000000000000000000000000000000000000007bffffffffffffffffffffffffffffffffffffffffffffffffffffffff1916827bffffffffffffffffffffffffffffffffffffffffffffffffffffffff191614806108e957506108e88261164f565b5b9050919050565b6108f8611731565b80601060006101000a81548160ff02191690831515021790555050565b606060008054610924906131a4565b80601f0160208091040260200160405190810160405280929190818152602001828054610950906131a4565b801561099d5780601f106109725761010080835404028352916020019161099d565b820191906000526020600020905b81548152906001019060200180831161098057829003601f168201915b5050505050905090565b60006109b2826117af565b6004600083815260200190815260200160002060009054906101000a900473ffffffffffffffffffffffffffffffffffffffff169050919050565b60006109f88261103d565b90508073ffffffffffffffffffffffffffffffffffffffff168373ffffffffffffffffffffffffffffffffffffffff161415610a69576040517f08c379a0000000000000000000000000000000000000000000000000000000008152600401610a6090613248565b60405180910390fd5b8073ffffffffffffffffffffffffffffffffffffffff16610a886117fa565b73ffffffffffffffffffffffffffffffffffffffff161480610ab75750610ab681610ab16117fa565b61150f565b5b610af6576040517f08c379a0000000000000000000000000000000000000000000000000000000008152600401610aed906132da565b60405180910390fd5b610b008383611802565b505050565b600d5481565b6000600880549050905090565b600f5481565b610b2f610b296117fa565b826118bb565b610b6e576040517f08c379a0000000000000000000000000000000000000000000000000000000008152600401610b659061336c565b60405180910390fd5b610b79838383611950565b505050565b6000610b898361117d565b8210610bca576040517f08c379a0000000000000000000000000000000000000000000000000000000008152600401610bc1906133fe565b60405180910390fd5b600660008473ffffffffffffffffffffffffffffffffffffffff1673ffffffffffffffffffffffffffffffffffffffff168152602001908152602001600020600083815260200190815260200160002054905092915050565b610c2b611731565b6000601160008373ffffffffffffffffffffffffffffffffffffffff1673ffffffffffffffffffffffffffffffffffffffff16815260200190815260200160002060006101000a81548160ff02191690831515021790555050565b610c8e611731565b6000610c9861125b565b73ffffffffffffffffffffffffffffffffffffffff1647604051610cbb9061344f565b60006040518083038185875af1925050503d8060008114610cf8576040519150601f19603f3d011682016040523d82523d6000602084013e610cfd565b606091505b5050905080610d0b57600080fd5b50565b6000610d18610b0b565b9050601060009054906101000a900460ff1615610d3457600080fd5b60008211610d4157600080fd5b600f54821115610d5057600080fd5b600e548282610d5f9190613493565b1115610d6a57600080fd5b610d7261125b565b73ffffffffffffffffffffffffffffffffffffffff163373ffffffffffffffffffffffffffffffffffffffff1614610e185760011515601160003373ffffffffffffffffffffffffffffffffffffffff1673ffffffffffffffffffffffffffffffffffffffff16815260200190815260200160002060009054906101000a900460ff16151514610e175781600d54610e0a91906134e9565b341015610e1657600080fd5b5b5b6000600190505b828111610e4e57610e3b848284610e369190613493565b611bb7565b8080610e4690613543565b915050610e1f565b50505050565b610e6f8383836040518060200160405280600081525061132d565b505050565b60606000610e818361117d565b905060008167ffffffffffffffff811115610e9f57610e9e612e5d565b5b604051908082528060200260200182016040528015610ecd5781602001602082028036833780820191505090505b50905060005b82811015610f1757610ee58582610b7e565b828281518110610ef857610ef761358c565b5b6020026020010181815250508080610f0f90613543565b915050610ed3565b508092505050919050565b610f2a611731565b80600d8190555050565b610f3c611731565b6001601160008373ffffffffffffffffffffffffffffffffffffffff1673ffffffffffffffffffffffffffffffffffffffff16815260200190815260200160002060006101000a81548160ff02191690831515021790555050565b6000610fa1610b0b565b8210610fe2576040517f08c379a0000000000000000000000000000000000000000000000000000000008152600401610fd99061362d565b60405180910390fd5b60088281548110610ff657610ff561358c565b5b90600052602060002001549050919050565b611010611731565b80600b9080519060200190611026929190612918565b5050565b601060009054906101000a900460ff1681565b6000806002600084815260200190815260200160002060009054906101000a900473ffffffffffffffffffffffffffffffffffffffff169050600073ffffffffffffffffffffffffffffffffffffffff168173ffffffffffffffffffffffffffffffffffffffff1614156110e6576040517f08c379a00000000000000000000000000000000000000000000000000000000081526004016110dd90613699565b60405180910390fd5b80915050919050565b600b80546110fc906131a4565b80601f0160208091040260200160405190810160405280929190818152602001828054611128906131a4565b80156111755780601f1061114a57610100808354040283529160200191611175565b820191906000526020600020905b81548152906001019060200180831161115857829003601f168201915b505050505081565b60008073ffffffffffffffffffffffffffffffffffffffff168273ffffffffffffffffffffffffffffffffffffffff1614156111ee576040517f08c379a00000000000000000000000000000000000000000000000000000000081526004016111e59061372b565b60405180910390fd5b600360008373ffffffffffffffffffffffffffffffffffffffff1673ffffffffffffffffffffffffffffffffffffffff168152602001908152602001600020549050919050565b61123d611731565b6112476000611bd5565b565b611251611731565b80600f8190555050565b6000600a60009054906101000a900473ffffffffffffffffffffffffffffffffffffffff16905090565b606060018054611294906131a4565b80601f01602080910402602001604051908101604052809291908181526020018280546112c0906131a4565b801561130d5780601f106112e25761010080835404028352916020019161130d565b820191906000526020600020905b8154815290600101906020018083116112f057829003601f168201915b5050505050905090565b6113296113226117fa565b8383611c9b565b5050565b61133e6113386117fa565b836118bb565b61137d576040517f08c379a00000000000000000000000000000000000000000000000000000000081526004016113749061336c565b60405180910390fd5b61138984848484611e08565b50505050565b600c805461139c906131a4565b80601f01602080910402602001604051908101604052809291908181526020018280546113c8906131a4565b80156114155780601f106113ea57610100808354040283529160200191611415565b820191906000526020600020905b8154815290600101906020018083116113f857829003601f168201915b505050505081565b606061142882611e64565b611467576040517f08c379a000000000000000000000000000000000000000000000000000000000815260040161145e906137bd565b60405180910390fd5b6000611471611ed0565b9050600081511161149157604051806020016040528060008152506114bf565b8061149b84611f62565b600c6040516020016114af939291906138ad565b6040516020818303038152906040525b915050919050565b600e5481565b60116020528060005260406000206000915054906101000a900460ff1681565b6114f5611731565b80600c908051906020019061150b929190612918565b5050565b6000600560008473ffffffffffffffffffffffffffffffffffffffff1673ffffffffffffffffffffffffffffffffffffffff16815260200190815260200160002060008373ffffffffffffffffffffffffffffffffffffffff1673ffffffffffffffffffffffffffffffffffffffff16815260200190815260200160002060009054906101000a900460ff16905092915050565b6115ab611731565b600073ffffffffffffffffffffffffffffffffffffffff168173ffffffffffffffffffffffffffffffffffffffff16141561161b576040517f08c379a000000000000000000000000000000000000000000000000000000000815260040161161290613950565b60405180910390fd5b61162481611bd5565b50565b6000808273ffffffffffffffffffffffffffffffffffffffff163b119050919050565b505050565b60007f80ac58cd000000000000000000000000000000000000000000000000000000007bffffffffffffffffffffffffffffffffffffffffffffffffffffffff1916827bffffffffffffffffffffffffffffffffffffffffffffffffffffffff1916148061171a57507f5b5e139f000000000000000000000000000000000000000000000000000000007bffffffffffffffffffffffffffffffffffffffffffffffffffffffff1916827bffffffffffffffffffffffffffffffffffffffffffffffffffffffff1916145b8061172a5750611729826120c3565b5b9050919050565b6117396117fa565b73ffffffffffffffffffffffffffffffffffffffff1661175761125b565b73ffffffffffffffffffffffffffffffffffffffff16146117ad576040517f08c379a00000000000000000000000000000000000000000000000000000000081526004016117a4906139bc565b60405180910390fd5b565b6117b881611e64565b6117f7576040517f08c379a00000000000000000000000000000000000000000000000000000000081526004016117ee90613699565b60405180910390fd5b50565b600033905090565b816004600083815260200190815260200160002060006101000a81548173ffffffffffffffffffffffffffffffffffffffff021916908373ffffffffffffffffffffffffffffffffffffffff160217905550808273ffffffffffffffffffffffffffffffffffffffff166118758361103d565b73ffffffffffffffffffffffffffffffffffffffff167f8c5be1e5ebec7d5bd14f71427d1e84f3dd0314c0f7b2291e5b200ac8c7c3b92560405160405180910390a45050565b6000806118c78361103d565b90508073ffffffffffffffffffffffffffffffffffffffff168473ffffffffffffffffffffffffffffffffffffffff1614806119095750611908818561150f565b5b8061194757508373ffffffffffffffffffffffffffffffffffffffff1661192f846109a7565b73ffffffffffffffffffffffffffffffffffffffff16145b91505092915050565b8273ffffffffffffffffffffffffffffffffffffffff166119708261103d565b73ffffffffffffffffffffffffffffffffffffffff16146119c6576040517f08c379a00000000000000000000000000000000000000000000000000000000081526004016119bd90613a4e565b60405180910390fd5b600073ffffffffffffffffffffffffffffffffffffffff168273ffffffffffffffffffffffffffffffffffffffff161415611a36576040517f08c379a0000000000000000000000000000000000000000000000000000000008152600401611a2d90613ae0565b60405180910390fd5b611a4183838361212d565b611a4c600082611802565b6001600360008573ffffffffffffffffffffffffffffffffffffffff1673ffffffffffffffffffffffffffffffffffffffff1681526020019081526020016000206000828254611a9c9190613b00565b925050819055506001600360008473ffffffffffffffffffffffffffffffffffffffff1673ffffffffffffffffffffffffffffffffffffffff1681526020019081526020016000206000828254611af39190613493565b92505081905550816002600083815260200190815260200160002060006101000a81548173ffffffffffffffffffffffffffffffffffffffff021916908373ffffffffffffffffffffffffffffffffffffffff160217905550808273ffffffffffffffffffffffffffffffffffffffff168473ffffffffffffffffffffffffffffffffffffffff167fddf252ad1be2c89b69c2b068fc378daa952ba7f163c4a11628f55a4df523b3ef60405160405180910390a4611bb2838383612241565b505050565b611bd1828260405180602001604052806000815250612246565b5050565b6000600a60009054906101000a900473ffffffffffffffffffffffffffffffffffffffff16905081600a60006101000a81548173ffffffffffffffffffffffffffffffffffffffff021916908373ffffffffffffffffffffffffffffffffffffffff1602179055508173ffffffffffffffffffffffffffffffffffffffff168173ffffffffffffffffffffffffffffffffffffffff167f8be0079c531659141344cd1fd0a4f28419497f9722a3daafe3b4186f6b6457e060405160405180910390a35050565b8173ffffffffffffffffffffffffffffffffffffffff168373ffffffffffffffffffffffffffffffffffffffff161415611d0a576040517f08c379a0000000000000000000000000000000000000000000000000000000008152600401611d0190613b80565b60405180910390fd5b80600560008573ffffffffffffffffffffffffffffffffffffffff1673ffffffffffffffffffffffffffffffffffffffff16815260200190815260200160002060008473ffffffffffffffffffffffffffffffffffffffff1673ffffffffffffffffffffffffffffffffffffffff16815260200190815260200160002060006101000a81548160ff0219169083151502179055508173ffffffffffffffffffffffffffffffffffffffff168373ffffffffffffffffffffffffffffffffffffffff167f17307eab39ab6107e8899845ad3d59bd9653f200f220920489ca2b5937696c3183604051611dfb9190612a6f565b60405180910390a3505050565b611e13848484611950565b611e1f848484846122a1565b611e5e576040517f08c379a0000000000000000000000000000000000000000000000000000000008152600401611e5590613c12565b60405180910390fd5b50505050565b60008073ffffffffffffffffffffffffffffffffffffffff166002600084815260200190815260200160002060009054906101000a900473ffffffffffffffffffffffffffffffffffffffff1673ffffffffffffffffffffffffffffffffffffffff1614159050919050565b6060600b8054611edf906131a4565b80601f0160208091040260200160405190810160405280929190818152602001828054611f0b906131a4565b8015611f585780601f10611f2d57610100808354040283529160200191611f58565b820191906000526020600020905b815481529060010190602001808311611f3b57829003601f168201915b5050505050905090565b60606000821415611faa576040518060400160405280600181526020017f300000000000000000000000000000000000000000000000000000000000000081525090506120be565b600082905060005b60008214611fdc578080611fc590613543565b915050600a82611fd59190613c61565b9150611fb2565b60008167ffffffffffffffff811115611ff857611ff7612e5d565b5b6040519080825280601f01601f19166020018201604052801561202a5781602001600182028036833780820191505090505b5090505b600085146120b7576001826120439190613b00565b9150600a856120529190613c92565b603061205e9190613493565b60f81b8183815181106120745761207361358c565b5b60200101907effffffffffffffffffffffffffffffffffffffffffffffffffffffffffffff1916908160001a905350600a856120b09190613c61565b945061202e565b8093505050505b919050565b60007f01ffc9a7000000000000000000000000000000000000000000000000000000007bffffffffffffffffffffffffffffffffffffffffffffffffffffffff1916827bffffffffffffffffffffffffffffffffffffffffffffffffffffffff1916149050919050565b61213883838361164a565b600073ffffffffffffffffffffffffffffffffffffffff168373ffffffffffffffffffffffffffffffffffffffff16141561217b5761217681612438565b6121ba565b8173ffffffffffffffffffffffffffffffffffffffff168373ffffffffffffffffffffffffffffffffffffffff16146121b9576121b88382612481565b5b5b600073ffffffffffffffffffffffffffffffffffffffff168273ffffffffffffffffffffffffffffffffffffffff1614156121fd576121f8816125ee565b61223c565b8273ffffffffffffffffffffffffffffffffffffffff168273ffffffffffffffffffffffffffffffffffffffff161461223b5761223a82826126bf565b5b5b505050565b505050565b612250838361273e565b61225d60008484846122a1565b61229c576040517f08c379a000000000000000000000000000000000000000000000000000000000815260040161229390613c12565b60405180910390fd5b505050565b60006122c28473ffffffffffffffffffffffffffffffffffffffff16611627565b1561242b578373ffffffffffffffffffffffffffffffffffffffff1663150b7a026122eb6117fa565b8786866040518563ffffffff1660e01b815260040161230d9493929190613d18565b602060405180830381600087803b15801561232757600080fd5b505af192505050801561235857506040513d601f19601f820116820180604052508101906123559190613d79565b60015b6123db573d8060008114612388576040519150601f19603f3d011682016040523d82523d6000602084013e61238d565b606091505b506000815114156123d3576040517f08c379a00000000000000000000000000000000000000000000000000000000081526004016123ca90613c12565b60405180910390fd5b805181602001fd5b63150b7a0260e01b7bffffffffffffffffffffffffffffffffffffffffffffffffffffffff1916817bffffffffffffffffffffffffffffffffffffffffffffffffffffffff191614915050612430565b600190505b949350505050565b6008805490506009600083815260200190815260200160002081905550600881908060018154018082558091505060019003906000526020600020016000909190919091505550565b6000600161248e8461117d565b6124989190613b00565b905060006007600084815260200190815260200160002054905081811461257d576000600660008673ffffffffffffffffffffffffffffffffffffffff1673ffffffffffffffffffffffffffffffffffffffff168152602001908152602001600020600084815260200190815260200160002054905080600660008773ffffffffffffffffffffffffffffffffffffffff1673ffffffffffffffffffffffffffffffffffffffff168152602001908152602001600020600084815260200190815260200160002081905550816007600083815260200190815260200160002081905550505b6007600084815260200190815260200160002060009055600660008573ffffffffffffffffffffffffffffffffffffffff1673ffffffffffffffffffffffffffffffffffffffff16815260200190815260200160002060008381526020019081526020016000206000905550505050565b600060016008805490506126029190613b00565b90506000600960008481526020019081526020016000205490506000600883815481106126325761263161358c565b5b9060005260206000200154905080600883815481106126545761265361358c565b5b9060005260206000200181905550816009600083815260200190815260200160002081905550600960008581526020019081526020016000206000905560088054806126a3576126a2613da6565b5b6001900381819060005260206000200160009055905550505050565b60006126ca8361117d565b905081600660008573ffffffffffffffffffffffffffffffffffffffff1673ffffffffffffffffffffffffffffffffffffffff168152602001908152602001600020600083815260200190815260200160002081905550806007600084815260200190815260200160002081905550505050565b600073ffffffffffffffffffffffffffffffffffffffff168273ffffffffffffffffffffffffffffffffffffffff1614156127ae576040517f08c379a00000000000000000000000000000000000000000000000000000000081526004016127a590613e21565b60405180910390fd5b6127b781611e64565b156127f7576040517f08c379a00000000000000000000000000000000000000000000000000000000081526004016127ee90613e8d565b60405180910390fd5b6128036000838361212d565b6001600360008473ffffffffffffffffffffffffffffffffffffffff1673ffffffffffffffffffffffffffffffffffffffff16815260200190815260200160002060008282546128539190613493565b92505081905550816002600083815260200190815260200160002060006101000a81548173ffffffffffffffffffffffffffffffffffffffff021916908373ffffffffffffffffffffffffffffffffffffffff160217905550808273ffffffffffffffffffffffffffffffffffffffff16600073ffffffffffffffffffffffffffffffffffffffff167fddf252ad1be2c89b69c2b068fc378daa952ba7f163c4a11628f55a4df523b3ef60405160405180910390a461291460008383612241565b5050565b828054612924906131a4565b90600052602060002090601f016020900481019282612946576000855561298d565b82601f1061295f57805160ff191683800117855561298d565b8280016001018555821561298d579182015b8281111561298c578251825591602001919060010190612971565b5b50905061299a919061299e565b5090565b5b808211156129b757600081600090555060010161299f565b5090565b6000604051905090565b600080fd5b600080fd5b60007fffffffff0000000000000000000000000000000000000000000000000000000082169050919050565b612a04816129cf565b8114612a0f57600080fd5b50565b600081359050612a21816129fb565b92915050565b600060208284031215612a3d57612a3c6129c5565b5b6000612a4b84828501612a12565b91505092915050565b60008115159050919050565b612a6981612a54565b82525050565b6000602082019050612a846000830184612a60565b92915050565b612a9381612a54565b8114612a9e57600080fd5b50565b600081359050612ab081612a8a565b92915050565b600060208284031215612acc57612acb6129c5565b5b6000612ada84828501612aa1565b91505092915050565b600081519050919050565b600082825260208201905092915050565b60005b83811015612b1d578082015181840152602081019050612b02565b83811115612b2c576000848401525b50505050565b6000601f19601f8301169050919050565b6000612b4e82612ae3565b612b588185612aee565b9350612b68818560208601612aff565b612b7181612b32565b840191505092915050565b60006020820190508181036000830152612b968184612b43565b905092915050565b6000819050919050565b612bb181612b9e565b8114612bbc57600080fd5b50565b600081359050612bce81612ba8565b92915050565b600060208284031215612bea57612be96129c5565b5b6000612bf884828501612bbf565b91505092915050565b600073ffffffffffffffffffffffffffffffffffffffff82169050919050565b6000612c2c82612c01565b9050919050565b612c3c81612c21565b82525050565b6000602082019050612c576000830184612c33565b92915050565b612c6681612c21565b8114612c7157600080fd5b50565b600081359050612c8381612c5d565b92915050565b60008060408385031215612ca057612c9f6129c5565b5b6000612cae85828601612c74565b9250506020612cbf85828601612bbf565b9150509250929050565b612cd281612b9e565b82525050565b6000602082019050612ced6000830184612cc9565b92915050565b600080600060608486031215612d0c57612d0b6129c5565b5b6000612d1a86828701612c74565b9350506020612d2b86828701612c74565b9250506040612d3c86828701612bbf565b9150509250925092565b600060208284031215612d5c57612d5b6129c5565b5b6000612d6a84828501612c74565b91505092915050565b600081519050919050565b600082825260208201905092915050565b6000819050602082019050919050565b612da881612b9e565b82525050565b6000612dba8383612d9f565b60208301905092915050565b6000602082019050919050565b6000612dde82612d73565b612de88185612d7e565b9350612df383612d8f565b8060005b83811015612e24578151612e0b8882612dae565b9750612e1683612dc6565b925050600181019050612df7565b5085935050505092915050565b60006020820190508181036000830152612e4b8184612dd3565b905092915050565b600080fd5b600080fd5b7f4e487b7100000000000000000000000000000000000000000000000000000000600052604160045260246000fd5b612e9582612b32565b810181811067ffffffffffffffff82111715612eb457612eb3612e5d565b5b80604052505050565b6000612ec76129bb565b9050612ed38282612e8c565b919050565b600067ffffffffffffffff821115612ef357612ef2612e5d565b5b612efc82612b32565b9050602081019050919050565b82818337600083830152505050565b6000612f2b612f2684612ed8565b612ebd565b905082815260208101848484011115612f4757612f46612e58565b5b612f52848285612f09565b509392505050565b600082601f830112612f6f57612f6e612e53565b5b8135612f7f848260208601612f18565b91505092915050565b600060208284031215612f9e57612f9d6129c5565b5b600082013567ffffffffffffffff811115612fbc57612fbb6129ca565b5b612fc884828501612f5a565b91505092915050565b60008060408385031215612fe857612fe76129c5565b5b6000612ff685828601612c74565b925050602061300785828601612aa1565b9150509250929050565b600067ffffffffffffffff82111561302c5761302b612e5d565b5b61303582612b32565b9050602081019050919050565b600061305561305084613011565b612ebd565b90508281526020810184848401111561307157613070612e58565b5b61307c848285612f09565b509392505050565b600082601f83011261309957613098612e53565b5b81356130a9848260208601613042565b91505092915050565b600080600080608085870312156130cc576130cb6129c5565b5b60006130da87828801612c74565b94505060206130eb87828801612c74565b93505060406130fc87828801612bbf565b925050606085013567ffffffffffffffff81111561311d5761311c6129ca565b5b61312987828801613084565b91505092959194509250565b6000806040838503121561314c5761314b6129c5565b5b600061315a85828601612c74565b925050602061316b85828601612c74565b9150509250929050565b7f4e487b7100000000000000000000000000000000000000000000000000000000600052602260045260246000fd5b600060028204905060018216806131bc57607f821691505b602082108114156131d0576131cf613175565b5b50919050565b7f4552433732313a20617070726f76616c20746f2063757272656e74206f776e6560008201527f7200000000000000000000000000000000000000000000000000000000000000602082015250565b6000613232602183612aee565b915061323d826131d6565b604082019050919050565b6000602082019050818103600083015261326181613225565b9050919050565b7f4552433732313a20617070726f76652063616c6c6572206973206e6f7420746f60008201527f6b656e206f776e6572206e6f7220617070726f76656420666f7220616c6c0000602082015250565b60006132c4603e83612aee565b91506132cf82613268565b604082019050919050565b600060208201905081810360008301526132f3816132b7565b9050919050565b7f4552433732313a2063616c6c6572206973206e6f7420746f6b656e206f776e6560008201527f72206e6f7220617070726f766564000000000000000000000000000000000000602082015250565b6000613356602e83612aee565b9150613361826132fa565b604082019050919050565b6000602082019050818103600083015261338581613349565b9050919050565b7f455243373231456e756d657261626c653a206f776e657220696e646578206f7560008201527f74206f6620626f756e6473000000000000000000000000000000000000000000602082015250565b60006133e8602b83612aee565b91506133f38261338c565b604082019050919050565b60006020820190508181036000830152613417816133db565b9050919050565b600081905092915050565b50565b600061343960008361341e565b915061344482613429565b600082019050919050565b600061345a8261342c565b9150819050919050565b7f4e487b7100000000000000000000000000000000000000000000000000000000600052601160045260246000fd5b600061349e82612b9e565b91506134a983612b9e565b9250827fffffffffffffffffffffffffffffffffffffffffffffffffffffffffffffffff038211156134de576134dd613464565b5b828201905092915050565b60006134f482612b9e565b91506134ff83612b9e565b9250817fffffffffffffffffffffffffffffffffffffffffffffffffffffffffffffffff048311821515161561353857613537613464565b5b828202905092915050565b600061354e82612b9e565b91507fffffffffffffffffffffffffffffffffffffffffffffffffffffffffffffffff82141561358157613580613464565b5b600182019050919050565b7f4e487b7100000000000000000000000000000000000000000000000000000000600052603260045260246000fd5b7f455243373231456e756d657261626c653a20676c6f62616c20696e646578206f60008201527f7574206f6620626f756e64730000000000000000000000000000000000000000602082015250565b6000613617602c83612aee565b9150613622826135bb565b604082019050919050565b600060208201905081810360008301526136468161360a565b9050919050565b7f4552433732313a20696e76616c696420746f6b656e2049440000000000000000600082015250565b6000613683601883612aee565b915061368e8261364d565b602082019050919050565b600060208201905081810360008301526136b281613676565b9050919050565b7f4552433732313a2061646472657373207a65726f206973206e6f74206120766160008201527f6c6964206f776e65720000000000000000000000000000000000000000000000602082015250565b6000613715602983612aee565b9150613720826136b9565b604082019050919050565b6000602082019050818103600083015261374481613708565b9050919050565b7f4552433732314d657461646174613a2055524920717565727920666f72206e6f60008201527f6e6578697374656e7420746f6b656e7300000000000000000000000000000000602082015250565b60006137a7603083612aee565b91506137b28261374b565b604082019050919050565b600060208201905081810360008301526137d68161379a565b9050919050565b600081905092915050565b60006137f382612ae3565b6137fd81856137dd565b935061380d818560208601612aff565b80840191505092915050565b60008190508160005260206000209050919050565b6000815461383b816131a4565b61384581866137dd565b945060018216600081146138605760018114613871576138a4565b60ff198316865281860193506138a4565b61387a85613819565b60005b8381101561389c5781548189015260018201915060208101905061387d565b838801955050505b50505092915050565b60006138b982866137e8565b91506138c582856137e8565b91506138d1828461382e565b9150819050949350505050565b7f4f776e61626c653a206e6577206f776e657220697320746865207a65726f206160008201527f6464726573730000000000000000000000000000000000000000000000000000602082015250565b600061393a602683612aee565b9150613945826138de565b604082019050919050565b600060208201905081810360008301526139698161392d565b9050919050565b7f4f776e61626c653a2063616c6c6572206973206e6f7420746865206f776e6572600082015250565b60006139a6602083612aee565b91506139b182613970565b602082019050919050565b600060208201905081810360008301526139d581613999565b9050919050565b7f4552433732313a207472616e736665722066726f6d20696e636f72726563742060008201527f6f776e6572000000000000000000000000000000000000000000000000000000602082015250565b6000613a38602583612aee565b9150613a43826139dc565b604082019050919050565b60006020820190508181036000830152613a6781613a2b565b9050919050565b7f4552433732313a207472616e7366657220746f20746865207a65726f2061646460008201527f7265737300000000000000000000000000000000000000000000000000000000602082015250565b6000613aca602483612aee565b9150613ad582613a6e565b604082019050919050565b60006020820190508181036000830152613af981613abd565b9050919050565b6000613b0b82612b9e565b9150613b1683612b9e565b925082821015613b2957613b28613464565b5b828203905092915050565b7f4552433732313a20617070726f766520746f2063616c6c657200000000000000600082015250565b6000613b6a601983612aee565b9150613b7582613b34565b602082019050919050565b60006020820190508181036000830152613b9981613b5d565b9050919050565b7f4552433732313a207472616e7366657220746f206e6f6e20455243373231526560008201527f63656976657220696d706c656d656e7465720000000000000000000000000000602082015250565b6000613bfc603283612aee565b9150613c0782613ba0565b604082019050919050565b60006020820190508181036000830152613c2b81613bef565b9050919050565b7f4e487b7100000000000000000000000000000000000000000000000000000000600052601260045260246000fd5b6000613c6c82612b9e565b9150613c7783612b9e565b925082613c8757613c86613c32565b5b828204905092915050565b6000613c9d82612b9e565b9150613ca883612b9e565b925082613cb857613cb7613c32565b5b828206905092915050565b600081519050919050565b600082825260208201905092915050565b6000613cea82613cc3565b613cf48185613cce565b9350613d04818560208601612aff565b613d0d81612b32565b840191505092915050565b6000608082019050613d2d6000830187612c33565b613d3a6020830186612c33565b613d476040830185612cc9565b8181036060830152613d598184613cdf565b905095945050505050565b600081519050613d73816129fb565b92915050565b600060208284031215613d8f57613d8e6129c5565b5b6000613d9d84828501613d64565b91505092915050565b7f4e487b7100000000000000000000000000000000000000000000000000000000600052603160045260246000fd5b7f4552433732313a206d696e7420746f20746865207a65726f2061646472657373600082015250565b6000613e0b602083612aee565b9150613e1682613dd5565b602082019050919050565b60006020820190508181036000830152613e3a81613dfe565b9050919050565b7f4552433732313a20746f6b656e20616c7265616479206d696e74656400000000600082015250565b6000613e77601c83612aee565b9150613e8282613e41565b602082019050919050565b60006020820190508181036000830152613ea681613e6a565b905091905056fea26469706673582212202eed4fdf31eecc69e43057d282137ddd0673007bab0214fab7346904e42b50f464736f6c6343000808003368747470733a2f2f62616679626569657a336f3478627577666267347170656e356b363236326d636535336a626d653370756c7a797076656b3567736a326b6c3677612e697066732e6e667473746f726167652e6c696e6b2f",
  "devdoc": {
    "kind": "dev",
    "methods": {
      "approve(address,uint256)": {
        "details": "See {IERC721-approve}."
      },
      "balanceOf(address)": {
        "details": "See {IERC721-balanceOf}."
      },
      "getApproved(uint256)": {
        "details": "See {IERC721-getApproved}."
      },
      "isApprovedForAll(address,address)": {
        "details": "See {IERC721-isApprovedForAll}."
      },
      "name()": {
        "details": "See {IERC721Metadata-name}."
      },
      "owner()": {
        "details": "Returns the address of the current owner."
      },
      "ownerOf(uint256)": {
        "details": "See {IERC721-ownerOf}."
      },
      "renounceOwnership()": {
        "details": "Leaves the contract without owner. It will not be possible to call `onlyOwner` functions anymore. Can only be called by the current owner. NOTE: Renouncing ownership will leave the contract without an owner, thereby removing any functionality that is only available to the owner."
      },
      "safeTransferFrom(address,address,uint256)": {
        "details": "See {IERC721-safeTransferFrom}."
      },
      "safeTransferFrom(address,address,uint256,bytes)": {
        "details": "See {IERC721-safeTransferFrom}."
      },
      "setApprovalForAll(address,bool)": {
        "details": "See {IERC721-setApprovalForAll}."
      },
      "supportsInterface(bytes4)": {
        "details": "See {IERC165-supportsInterface}."
      },
      "symbol()": {
        "details": "See {IERC721Metadata-symbol}."
      },
      "tokenByIndex(uint256)": {
        "details": "See {IERC721Enumerable-tokenByIndex}."
      },
      "tokenOfOwnerByIndex(address,uint256)": {
        "details": "See {IERC721Enumerable-tokenOfOwnerByIndex}."
      },
      "tokenURI(uint256)": {
        "details": "See {IERC721Metadata-tokenURI}."
      },
      "totalSupply()": {
        "details": "See {IERC721Enumerable-totalSupply}."
      },
      "transferFrom(address,address,uint256)": {
        "details": "See {IERC721-transferFrom}."
      },
      "transferOwnership(address)": {
        "details": "Transfers ownership of the contract to a new account (`newOwner`). Can only be called by the current owner."
      }
    },
    "version": 1
  },
  "userdoc": {
    "kind": "user",
    "methods": {},
    "version": 1
  },
  "storageLayout": {
    "storage": [
      {
        "astId": 138,
        "contract": "contracts/NFTToken.sol:NFTToken",
        "label": "_name",
        "offset": 0,
        "slot": "0",
        "type": "t_string_storage"
      },
      {
        "astId": 140,
        "contract": "contracts/NFTToken.sol:NFTToken",
        "label": "_symbol",
        "offset": 0,
        "slot": "1",
        "type": "t_string_storage"
      },
      {
        "astId": 144,
        "contract": "contracts/NFTToken.sol:NFTToken",
        "label": "_owners",
        "offset": 0,
        "slot": "2",
        "type": "t_mapping(t_uint256,t_address)"
      },
      {
        "astId": 148,
        "contract": "contracts/NFTToken.sol:NFTToken",
        "label": "_balances",
        "offset": 0,
        "slot": "3",
        "type": "t_mapping(t_address,t_uint256)"
      },
      {
        "astId": 152,
        "contract": "contracts/NFTToken.sol:NFTToken",
        "label": "_tokenApprovals",
        "offset": 0,
        "slot": "4",
        "type": "t_mapping(t_uint256,t_address)"
      },
      {
        "astId": 158,
        "contract": "contracts/NFTToken.sol:NFTToken",
        "label": "_operatorApprovals",
        "offset": 0,
        "slot": "5",
        "type": "t_mapping(t_address,t_mapping(t_address,t_bool))"
      },
      {
        "astId": 1128,
        "contract": "contracts/NFTToken.sol:NFTToken",
        "label": "_ownedTokens",
        "offset": 0,
        "slot": "6",
        "type": "t_mapping(t_address,t_mapping(t_uint256,t_uint256))"
      },
      {
        "astId": 1132,
        "contract": "contracts/NFTToken.sol:NFTToken",
        "label": "_ownedTokensIndex",
        "offset": 0,
        "slot": "7",
        "type": "t_mapping(t_uint256,t_uint256)"
      },
      {
        "astId": 1135,
        "contract": "contracts/NFTToken.sol:NFTToken",
        "label": "_allTokens",
        "offset": 0,
        "slot": "8",
        "type": "t_array(t_uint256)dyn_storage"
      },
      {
        "astId": 1139,
        "contract": "contracts/NFTToken.sol:NFTToken",
        "label": "_allTokensIndex",
        "offset": 0,
        "slot": "9",
        "type": "t_mapping(t_uint256,t_uint256)"
      },
      {
        "astId": 7,
        "contract": "contracts/NFTToken.sol:NFTToken",
        "label": "_owner",
        "offset": 0,
        "slot": "10",
        "type": "t_address"
      },
      {
        "astId": 2102,
        "contract": "contracts/NFTToken.sol:NFTToken",
        "label": "baseURI",
        "offset": 0,
        "slot": "11",
        "type": "t_string_storage"
      },
      {
        "astId": 2105,
        "contract": "contracts/NFTToken.sol:NFTToken",
        "label": "baseExtension",
        "offset": 0,
        "slot": "12",
        "type": "t_string_storage"
      },
      {
        "astId": 2108,
        "contract": "contracts/NFTToken.sol:NFTToken",
        "label": "cost",
        "offset": 0,
        "slot": "13",
        "type": "t_uint256"
      },
      {
        "astId": 2111,
        "contract": "contracts/NFTToken.sol:NFTToken",
        "label": "maxSupply",
        "offset": 0,
        "slot": "14",
        "type": "t_uint256"
      },
      {
        "astId": 2114,
        "contract": "contracts/NFTToken.sol:NFTToken",
        "label": "maxMintAmount",
        "offset": 0,
        "slot": "15",
        "type": "t_uint256"
      },
      {
        "astId": 2117,
        "contract": "contracts/NFTToken.sol:NFTToken",
        "label": "paused",
        "offset": 0,
        "slot": "16",
        "type": "t_bool"
      },
      {
        "astId": 2121,
        "contract": "contracts/NFTToken.sol:NFTToken",
        "label": "whitelisted",
        "offset": 0,
        "slot": "17",
        "type": "t_mapping(t_address,t_bool)"
      }
    ],
    "types": {
      "t_address": {
        "encoding": "inplace",
        "label": "address",
        "numberOfBytes": "20"
      },
      "t_array(t_uint256)dyn_storage": {
        "base": "t_uint256",
        "encoding": "dynamic_array",
        "label": "uint256[]",
        "numberOfBytes": "32"
      },
      "t_bool": {
        "encoding": "inplace",
        "label": "bool",
        "numberOfBytes": "1"
      },
      "t_mapping(t_address,t_bool)": {
        "encoding": "mapping",
        "key": "t_address",
        "label": "mapping(address => bool)",
        "numberOfBytes": "32",
        "value": "t_bool"
      },
      "t_mapping(t_address,t_mapping(t_address,t_bool))": {
        "encoding": "mapping",
        "key": "t_address",
        "label": "mapping(address => mapping(address => bool))",
        "numberOfBytes": "32",
        "value": "t_mapping(t_address,t_bool)"
      },
      "t_mapping(t_address,t_mapping(t_uint256,t_uint256))": {
        "encoding": "mapping",
        "key": "t_address",
        "label": "mapping(address => mapping(uint256 => uint256))",
        "numberOfBytes": "32",
        "value": "t_mapping(t_uint256,t_uint256)"
      },
      "t_mapping(t_address,t_uint256)": {
        "encoding": "mapping",
        "key": "t_address",
        "label": "mapping(address => uint256)",
        "numberOfBytes": "32",
        "value": "t_uint256"
      },
      "t_mapping(t_uint256,t_address)": {
        "encoding": "mapping",
        "key": "t_uint256",
        "label": "mapping(uint256 => address)",
        "numberOfBytes": "32",
        "value": "t_address"
      },
      "t_mapping(t_uint256,t_uint256)": {
        "encoding": "mapping",
        "key": "t_uint256",
        "label": "mapping(uint256 => uint256)",
        "numberOfBytes": "32",
        "value": "t_uint256"
      },
      "t_string_storage": {
        "encoding": "bytes",
        "label": "string",
        "numberOfBytes": "32"
      },
      "t_uint256": {
        "encoding": "inplace",
        "label": "uint256",
        "numberOfBytes": "32"
      }
    }
  }
}